:020000040800F2
:1000000000800020910E0008B5040008C10400081B
:10001000C7040008CD040008D30400080000000055
:10002000000000000000000000000000D9040008EB
:10003000E504000800000000F1040008FD040008C9
:10004000D90E0008D90E0008D90E0008D90E0008F4
:10005000D90E0008D90E0008D90E0008D90E0008E4
:10006000D90E0008D90E0008D90E0008D90E0008D4
:10007000D90E0008D90E0008D90E0008D90E0008C4
:10008000D90E0008D90E0008D90E0008D90E0008B4
:10009000D90E0008D90E0008D90E0008D90E0008A4
:1000A000D90E0008DD050008D90E00084D0600082D
:1000B000D90E0008D90E0008D90E0008D90E000884
:1000C000D90E0008D90E0008D90E0008D90E000874
:1000D000D90E0008D90E0008D90E0008D90E000864
:1000E000D90E0008D90E0008D90E00080000000043
:1000F0000000000000000000000000000000000000
:1001000000000000D90E0008D90E00080000000011
:10011000D90E0008D90E0008000000000000000001
:10012000D90E0008D90E0008D90E0008D90E000813
:1001300000000000000000000000000000000000BF
:10014000000000000000000000000000D90E0008C0
:100150000000000000000000D90E0008D90E0008C1
:10016000000000000000000000000000D90E0008A0
:1001700010B5054C237833B9044B13B10448AFF3E1
:1001800000800123237010BD30000020000000001B
:100190003011000808B5034B1BB103490348AFF306
:1001A000008008BD0000000034000020301100086D
:1001B00053B94AB9002908BF00281CBF4FF0FF31CE
:1001C0004FF0FF3000F074B9ADF1080C6DE904CECA
:1001D00000F006F8DDF804E0DDE9022304B0704722
:1001E0002DE9F047089E0D4604468846002B4DD168
:1001F0008A42944668D9B2FA82F252B101FA02F305
:10020000C2F1200120FA01F10CFA02FC41EA0308D4
:1002100094404FEA1C45210CB8FBF5FE1FFA8CF701
:1002200005FB1E8341EA03430EFB07F199420BD9FC
:100230001CEB03030EF1FF3080F01E81994240F267
:100240001B81AEF1020E63445B1AA4B2B3FBF5F05E
:1002500005FB103344EA034400FB07F7A7420AD921
:100260001CEB040400F1FF3380F00881A74240F248
:10027000058164440238E41B40EA0E4000211EB1AF
:10028000D4400023C6E90043BDE8F0878B4208D97B
:10029000002E00F0EE800021C6E900050846BDE80A
:1002A000F087B3FA83F100294AD1AB4202D38242EC
:1002B00000F2F980841A65EB030301209846002EB2
:1002C000E2D0C6E90048DFE702B9FFDEB2FA82F207
:1002D000002A40F09180A1EB0C054FEA1C471FFA61
:1002E0008CFE0121B5FBF7F307FB1350250C45EA03
:1002F00000450EFB03F0A84208D91CEB050503F1ED
:10030000FF3802D2A84200F2CB8043462D1AA4B295
:10031000B5FBF7F007FB105544EA05440EFB00FE61
:10032000A64508D91CEB040400F1FF3502D2A6450E
:1003300000F2BB802846A4EB0E0440EA03409EE78F
:10034000C1F120078B4022FA07FC4CEA030C20FA8B
:1003500007F405FA01F31C43FD404FEA1C4900FA7B
:1003600001F3B5FBF9F8200C1FFA8CFE09FB1855B8
:1003700040EA054508FB0EF0A84202FA01F20BD94B
:100380001CEB050508F1FF3A80F08880A84240F296
:100390008580A8F1020865442D1AA4B2B5FBF9F0D6
:1003A00009FB105544EA054500FB0EFEAE4508D991
:1003B0001CEB050500F1FF346CD2AE456AD902385A
:1003C000654440EA0840A0FB0294A5EB0E05A54257
:1003D000C846A64656D353D05EB1B3EB080265EBD0
:1003E0000E0505FA07F722FA01F3CD401F43C6E9CF
:1003F00000750021BDE8F087C2F1200320FA03F167
:100400000CFA02FC25FA03F395400D434FEA1C4712
:100410001FFA8CFEB3FBF7F107FB11302B0C43EAFC
:10042000004301FB0EF0984204FA02F408D91CEBD9
:10043000030301F1FF382FD298422DD902396344CA
:100440001B1AADB2B3FBF7F007FB103345EA0345C7
:1004500000FB0EF3AB4208D91CEB050500F1FF3899
:1004600016D2AB4214D902386544ED1A40EA014174
:1004700038E73146304607E78646E5E61846FAE6AD
:100480004B45A9D2B9EB020864EB0C0E0138A3E787
:100490004046EAE7204694E74146D1E7D0467BE76D
:1004A000023B654432E7084609E76444023842E704
:1004B000704700BF80B400AF00BFBD4680BC70472E
:1004C00080B400AFFEE780B400AFFEE780B400AFB9
:1004D000FEE780B400AFFEE780B400AF00BFBD46CA
:1004E00080BC704780B400AF00BFBD4680BC704781
:1004F00080B400AF00BFBD4680BC704780B400AF81
:1005000000BFBD4680BC704780B582B000AF0121FE
:100510000C4800F0BAF83B46184600F0D2FA012326
:10052000FB7100233B711023BB7101233B60282327
:100530007B713B461946044800F028FA00BF083793
:10054000BD4680BD020018000008014080B500AF24
:100550001D4800F0E5F801211C4800F096F81A4B00
:100560005B681B4AA2FB03235B0B013B1A4642F26A
:100570000F71184800F0E2FB0021164800F0F4FB70
:1005800001220121134800F037FC01220221114809
:1005900000F032FC104B1B681A4600210D4800F099
:1005A000F7FB032000F08DFB00220021192000F052
:1005B00067FB002200211B2000F062FB012105489F
:1005C00000F0A8FB00BF80BD4C0000200B0018000D
:1005D0005917B7D1002C01400400002080B500AFAE
:1005E0000121164800F028FC0346002B24D0144BB0
:1005F0001B686433124A1360114B1B6842F20E727F
:10060000934203D90E4B40F2E7321A600C4B1B6841
:100610001A460021094800F0BBFB0121074800F001
:1006200029FC0121074800F073FA074B00221A70D9
:100630000121024800F01EFC00BF80BD002C0140DB
:1006400004000020000801406000002080B500AFD9
:100650000121064800F04EFA054B01221A700221D2
:10066000044800F007FC00BF80BD00BF0008014047
:1006700060000020002C014080B500AF00F082FC3B
:10068000FFF742FFFFF762FFFEE780B483B000AFE1
:1006900078600B46FB70FB78012B16D17B681B0C36
:1006A00003F1804303F5043319687B6803F01F03EB
:1006B00001229A407B681B0C03F1804303F504334D
:1006C000184641EA0203036017E07B681B0C03F144
:1006D000804303F5043319687B6803F01F0301228C
:1006E00002FA03F3DA437B681B0C03F1804303F542
:1006F0000433184601EA0203036000BF0C37BD460D
:1007000080BC704780B400AF044B5B68C3F38103C7
:10071000DBB21846BD4680BC704700BF00100240E7
:100720002DE9B04F8EB000AFF86000237B6300234B
:10073000FB620023BB6200237B6200233B62002339
:100740003B630023FB610023BB6100237B61FFF758
:10075000D9FF0346FB74FB7C022B21D0022B00F354
:10076000AE80002B02D0012B16D0A8E07F4B5B6D32
:10077000C3F34023DBB2002B0AD07C4B1B6BC3F3CB
:100780004063DBB2002B03D0FB68794A1A609AE021
:10079000FB68784A1A6096E0FB68764A1A6092E035
:1007A000724B5B68C3F30043DBB2BB626F4BDB6A27
:1007B000C3F3C073DBB2002B3AD16C4B5B68C3F35D
:1007C0008343DBB27B63694B5B68C3F34173DBB28A
:1007D000FB62FB6A002B02D17B6B0F2B06D1FB6AFD
:1007E0001A017B6B134401337B6302E07B6B0233A2
:1007F0007B63BB6A002B06D17B6B5F4A03FB02F273
:10080000FB681A605FE0594B5B68C3F34043DBB29F
:10081000002B06D07B6B584A03FB02F2FB681A6080
:1008200051E07B6B534A03FB02F2FB681A604AE01B
:100830004E4BDB6AC3F30313DBB2FB614B4BDB6A4A
:10084000C3F308239BB2BB61484BDB6AC3F30203CB
:10085000DBB27B61BB6A002B02D1474B3B630BE0F1
:10086000424B5B68C3F34043DBB2002B02D0424BE8
:100870003B6301E03F4B3B633B6B00229A46934650
:10088000BB6900229846914608FB0BF20AFB09F36C
:100890001344AAFB08452B441D46FA697B6902FAFA
:1008A00003F300223B607A60D7E900232046294603
:1008B000FFF77EFC02460B46FB681A6003E0FB680C
:1008C0002C4A1A6000BF294B5B68C3F30313DBB2E9
:1008D0007B622A4A7B6A13441B783B62FB681A6876
:1008E0003B6ADA40FB685A60204B5B68C3F3022323
:1008F000DBB27B62224A7B6A13441B783B62FB6853
:100900005A683B6ADA40FB68DA60184B5B68C3F3ED
:10091000C223DBB27B621B4A7B6A13441B783B62B7
:10092000FB685A683B6ADA40FB689A600F4B5B6869
:10093000C3F30073DBB27B627B6A9B000B4A526895
:10094000C2F38132D2B213437B620F4A7B6A1344F3
:100950001B783B62FB689A683B6AB2FBF3F2FB6868
:100960001A6100BF3837BD46BDE8B08F00100240A5
:10097000006CDC0200127A0000093D0048110008FA
:1009800058110008601100086811000880B485B093
:1009900000AF786039603B681B683B813B689B799E
:1009A000032B02D100237B8130E03B689B79002B35
:1009B00015D13B685B799BB203F00F037B813B68E9
:1009C0005B79182B03D13A897B681A611EE03B687A
:1009D0005B79282B1AD13A897B685A6116E03B680B
:1009E0009B791BB203F008031AB23B681B791BB258
:1009F00003F004031BB213431AB23B68DB791BB24A
:100A000003F003031BB213431BB27B813B89DBB2B0
:100A1000002B25D00023FB601FE03A89FB6842FAD7
:100A200003F303F00103002B14D07B681B68FA6802
:100A300092000F2101FA02F2D2431A407B681A6039
:100A40007B681B687989FA68920001FA02F21A43FE
:100A50007B681A60FB680133FB60FB68072BDCD9FD
:100A60003B89FF2B28D93B891B0A3B810023FB6074
:100A70001FE03A89FB6842FA03F303F00103002BFD
:100A800014D07B685B68FA6892000F2101FA02F2C9
:100A9000D2431A407B685A607B685B687989FA6840
:100AA000920001FA02F21A437B685A60FB68013334
:100AB000FB60FB68072BDCD900BF1437BD4680BC48
:100AC000704780B483B000AF78607B684FF6FF72E8
:100AD0001A607B6800229A717B6800221A717B6819
:100AE00004225A717B680122DA7100BF0C37BD46BF
:100AF00080BC704780B483B000AF78600B467B80C9
:100B00007A887B681A6100BF0C37BD4680BC70478D
:100B100080B483B000AF78600B467B807A887B68B6
:100B20005A6100BF0C37BD4680BC704780B485B0A9
:100B300000AF78607B6803F00703FB600C4BDB6859
:100B4000BB60BA684FF6FF031340BB60FB681A0234
:100B5000BB68134343F0BF6343F40033BB60044AF4
:100B6000BB68D36000BF1437BD4680BC704700BF70
:100B700000ED00E080B400AF044BDB681B0A03F01B
:100B800007031846BD4680BC704700BF00ED00E07B
:100B900080B483B000AF0346FB7197F90730002B98
:100BA0000BDBFB7903F01F02064997F907305B095D
:100BB000012000FA02F241F8232000BF0C37BD46A5
:100BC00080BC704700E100E080B483B000AF034612
:100BD0003960FB7197F90730002B0ADB3B68DAB20A
:100BE0000C4997F907301201D2B20B4483F8002365
:100BF0000AE03B68DAB20849FB7903F00F03043BD3
:100C00001201D2B20B441A7600BF0C37BD4680BC2D
:100C1000704700BF00E100E000ED00E080B489B063
:100C200000AFF860B9607A60FB6803F00703FB610E
:100C3000FB69C3F10703042B28BF0423BB61FB69D5
:100C40000433062B02D9FB69033B00E000237B61E0
:100C50004FF0FF32BB6902FA03F3DA43BB681A4074
:100C60007B699A404FF0FF317B6901FA03F3D94366
:100C70007B680B40134318462437BD4680BC704741
:100C800080B586B000AF0346B9607A60FB7300237D
:100C90007B61FFF76FFF03467A68B9681846FFF774
:100CA000BDFF786197F90F3079691846FFF78CFF1F
:100CB00097F90F301846FFF76BFF00BF1837BD4696
:100CC00080BD80B582B000AF0346FB71FB7918464A
:100CD000FFF72CFF00BF0837BD4680BD80B483B04E
:100CE00000AF0346FB71FB79042B06D1084B1B6850
:100CF000074A43F00403136005E0054B1B68044AF0
:100D000023F00403136000BF0C37BD4680BC70475E
:100D100010E000E080B483B000AF78600B46FB7059
:100D2000FB7803F00103D9B27A68136861F300031A
:100D3000136000BF0C37BD4680BC704780B485B0DF
:100D400000AFF860B9607A60FB68BA68DA62FB6885
:100D50007A689A62FA68536943F00103536100BFED
:100D60001437BD4680BC704780B483B000AF786054
:100D70000B46FB70FB7803F00703D9B27A6813685F
:100D800061F30613136000BF0C37BD4680BC70478B
:100D900080B487B000AFF8600B467A60FB72FB7AD4
:100DA000FB82FB8A062B21D801A252F823F000BF58
:100DB000CD0D0008ED0D0008D50D0008ED0D000863
:100DC000DD0D0008ED0D0008E50D0008FB687A68F0
:100DD0005A630CE0FB687A689A6308E0FB687A68FB
:100DE000DA6304E0FB687A681A6400E000BF00BFC1
:100DF0001C37BD4680BC704780B485B000AFF8603A
:100E0000B9601346FB71FB79012B06D1FB68DA68E8
:100E1000BB681A43FB68DA6009E0FB79002B06D156
:100E2000FB68DA68BB68DB431A40FB68DA6000BF26
:100E30001437BD4680BC704780B485B000AF786081
:100E400039600023FB737B681A693B681340002BF1
:100E500008D07B68DA683B681340002B02D001237E
:100E6000FB7301E00023FB73FB7B18461437BD4680
:100E700080BC704780B483B000AF786039603B6855
:100E8000DA437B681A6100BF0C37BD4680BC7047EF
:100E9000002103E00B4B5B58435004310A480B4BD5
:100EA00042189A42F6D30A4A02E0002342F8043B71
:100EB000084B9A42F9D300F011F800F015F9FFF74A
:100EC000DBFB70478011000800000020300000208C
:100ED000300000206C000020FEE7000080B400AF6E
:100EE000254AD36943F08053D361244B1B78DBB28E
:100EF000224A43F00403DBB213701F4AD3696FF335
:100F00001C73D3611C4A136843F00103136000BFD4
:100F1000194B1B68C3F34003DBB2012BF8D1164A0F
:100F200053686FF30103536000BF134B5B68C3F357
:100F30008103DBB2002BF8D10F4B1B680E4A23F064
:100F4000867323F4803313600B4B00225A600A4BE4
:100F500041F61072DA62084B4FF480121A63064BA6
:100F60004FF41F029A60064B4FF000629A6000BF78
:100F7000BD4680BC704700BF00100240507000406A
:100F800000ED00E080B500AF00F08EF8002000F02A
:100F900035F8012000F032F8022000F02FF8002090
:100FA00000F060F8012000F05DF8022000F05AF82F
:100FB00000F002F800BF80BD80B582B000AF012113
:100FC0000C48FFF762FB3B461846FFF77AFD01230A
:100FD000FB7100233B710023BB7101233B6028237D
:100FE0007B713B4619460448FFF7D0FC00BF083729
:100FF000BD4680BD020018000008014080B584B0E5
:1010000000AF0346FB71FB79134A52F823300121EC
:101010001846FFF73AFB07F108031846FFF751FDA2
:101020000123FB7300233B731023BB73FB790B4A33
:1010300032F81330BB6004237B73FB79084A52F803
:10104000233007F1080211461846FFF79FFC00BF46
:101050001037BD4680BD00BF2000002018000020D2
:101060000C00002080B483B000AF0346FB71FB7915
:10107000022B10D8FB790A4A32F81330002B0BD020
:10108000FB79074A32F81310FB79064A52F82330ED
:101090000A461A6100E000BF0C37BD4680BC7047AD
:1010A000180000200C00002080B500AF0420FFF7DE
:1010B00015FE094B1B68094AA2FB03239B0C084A37
:1010C0001360074B1B684FF47A7202FB03F3054A67
:1010D000136000BF80BD00BF0800002083DE1B43FB
:1010E000640000206800002070B50D4D0D4C641B9D
:1010F000A4100026A64209D10B4D0C4C00F018F8A4
:10110000641BA4100026A64205D170BD55F8043B0F
:1011100098470136EEE755F8043B98470136F2E769
:101120007811000878110008781100087C11000877
:10113000F8B500BFF8BC08BC9E467047F8B500BFC4
:08114000F8BC08BC9E46704794
:10114800000000000000000001020304060708096F
:101158000000000001020304000000000102030473
:0811680002040608020C081045
:0811700070F0FF7F0100000098
:0411780095010008D5
:04117C0071010008F5
:1011800001000000C700000000127A0000100140BA
:101190000010014000100140040008002000000081
:1011A00004001800040018000400180001000000EA
:0400000508000E9150
:00000001FF
